{
	"data": {
		"bytecode": {
			"linkReferences": {},
			"object": "608060405234801561001057600080fd5b506102a6806100206000396000f3fe608060405234801561001057600080fd5b50600436106100625760003560e01c806310b9c3f9146100675780635e86e7cf1461008357806374c3fb6c146100a1578063a38cdcc7146100bf578063b49a212c146100db578063bdb5fe46146100f7575b600080fd5b610081600480360381019061007c91906101b9565b610115565b005b61008b61012b565b60405161009891906101f5565b60405180910390f35b6100a9610135565b6040516100b691906101f5565b60405180910390f35b6100d960048036038101906100d491906101b9565b61013f565b005b6100f560048036038101906100f091906101b9565b61015c565b005b6100ff610175565b60405161010c91906101f5565b60405180910390f35b600181610122919061023f565b60008190555050565b6000600154905090565b6000600254905090565b670de0b6b3a764000081610153919061023f565b60018190555050565b633b9aca008161016c919061023f565b60028190555050565b60008054905090565b600080fd5b6000819050919050565b61019681610183565b81146101a157600080fd5b50565b6000813590506101b38161018d565b92915050565b6000602082840312156101cf576101ce61017e565b5b60006101dd848285016101a4565b91505092915050565b6101ef81610183565b82525050565b600060208201905061020a60008301846101e6565b92915050565b7f4e487b7100000000000000000000000000000000000000000000000000000000600052601260045260246000fd5b600061024a82610183565b915061025583610183565b92508261026557610264610210565b5b82820490509291505056fea264697066735822122047ac6f5df79215817083431c2b8569a9beefb3eda6ac3169879d7a45c1ff4a3264736f6c63430008110033",
			"opcodes": "PUSH1 0x80 PUSH1 0x40 MSTORE CALLVALUE DUP1 ISZERO PUSH2 0x10 JUMPI PUSH1 0x0 DUP1 REVERT JUMPDEST POP PUSH2 0x2A6 DUP1 PUSH2 0x20 PUSH1 0x0 CODECOPY PUSH1 0x0 RETURN INVALID PUSH1 0x80 PUSH1 0x40 MSTORE CALLVALUE DUP1 ISZERO PUSH2 0x10 JUMPI PUSH1 0x0 DUP1 REVERT JUMPDEST POP PUSH1 0x4 CALLDATASIZE LT PUSH2 0x62 JUMPI PUSH1 0x0 CALLDATALOAD PUSH1 0xE0 SHR DUP1 PUSH4 0x10B9C3F9 EQ PUSH2 0x67 JUMPI DUP1 PUSH4 0x5E86E7CF EQ PUSH2 0x83 JUMPI DUP1 PUSH4 0x74C3FB6C EQ PUSH2 0xA1 JUMPI DUP1 PUSH4 0xA38CDCC7 EQ PUSH2 0xBF JUMPI DUP1 PUSH4 0xB49A212C EQ PUSH2 0xDB JUMPI DUP1 PUSH4 0xBDB5FE46 EQ PUSH2 0xF7 JUMPI JUMPDEST PUSH1 0x0 DUP1 REVERT JUMPDEST PUSH2 0x81 PUSH1 0x4 DUP1 CALLDATASIZE SUB DUP2 ADD SWAP1 PUSH2 0x7C SWAP2 SWAP1 PUSH2 0x1B9 JUMP JUMPDEST PUSH2 0x115 JUMP JUMPDEST STOP JUMPDEST PUSH2 0x8B PUSH2 0x12B JUMP JUMPDEST PUSH1 0x40 MLOAD PUSH2 0x98 SWAP2 SWAP1 PUSH2 0x1F5 JUMP JUMPDEST PUSH1 0x40 MLOAD DUP1 SWAP2 SUB SWAP1 RETURN JUMPDEST PUSH2 0xA9 PUSH2 0x135 JUMP JUMPDEST PUSH1 0x40 MLOAD PUSH2 0xB6 SWAP2 SWAP1 PUSH2 0x1F5 JUMP JUMPDEST PUSH1 0x40 MLOAD DUP1 SWAP2 SUB SWAP1 RETURN JUMPDEST PUSH2 0xD9 PUSH1 0x4 DUP1 CALLDATASIZE SUB DUP2 ADD SWAP1 PUSH2 0xD4 SWAP2 SWAP1 PUSH2 0x1B9 JUMP JUMPDEST PUSH2 0x13F JUMP JUMPDEST STOP JUMPDEST PUSH2 0xF5 PUSH1 0x4 DUP1 CALLDATASIZE SUB DUP2 ADD SWAP1 PUSH2 0xF0 SWAP2 SWAP1 PUSH2 0x1B9 JUMP JUMPDEST PUSH2 0x15C JUMP JUMPDEST STOP JUMPDEST PUSH2 0xFF PUSH2 0x175 JUMP JUMPDEST PUSH1 0x40 MLOAD PUSH2 0x10C SWAP2 SWAP1 PUSH2 0x1F5 JUMP JUMPDEST PUSH1 0x40 MLOAD DUP1 SWAP2 SUB SWAP1 RETURN JUMPDEST PUSH1 0x1 DUP2 PUSH2 0x122 SWAP2 SWAP1 PUSH2 0x23F JUMP JUMPDEST PUSH1 0x0 DUP2 SWAP1 SSTORE POP POP JUMP JUMPDEST PUSH1 0x0 PUSH1 0x1 SLOAD SWAP1 POP SWAP1 JUMP JUMPDEST PUSH1 0x0 PUSH1 0x2 SLOAD SWAP1 POP SWAP1 JUMP JUMPDEST PUSH8 0xDE0B6B3A7640000 DUP2 PUSH2 0x153 SWAP2 SWAP1 PUSH2 0x23F JUMP JUMPDEST PUSH1 0x1 DUP2 SWAP1 SSTORE POP POP JUMP JUMPDEST PUSH4 0x3B9ACA00 DUP2 PUSH2 0x16C SWAP2 SWAP1 PUSH2 0x23F JUMP JUMPDEST PUSH1 0x2 DUP2 SWAP1 SSTORE POP POP JUMP JUMPDEST PUSH1 0x0 DUP1 SLOAD SWAP1 POP SWAP1 JUMP JUMPDEST PUSH1 0x0 DUP1 REVERT JUMPDEST PUSH1 0x0 DUP2 SWAP1 POP SWAP2 SWAP1 POP JUMP JUMPDEST PUSH2 0x196 DUP2 PUSH2 0x183 JUMP JUMPDEST DUP2 EQ PUSH2 0x1A1 JUMPI PUSH1 0x0 DUP1 REVERT JUMPDEST POP JUMP JUMPDEST PUSH1 0x0 DUP2 CALLDATALOAD SWAP1 POP PUSH2 0x1B3 DUP2 PUSH2 0x18D JUMP JUMPDEST SWAP3 SWAP2 POP POP JUMP JUMPDEST PUSH1 0x0 PUSH1 0x20 DUP3 DUP5 SUB SLT ISZERO PUSH2 0x1CF JUMPI PUSH2 0x1CE PUSH2 0x17E JUMP JUMPDEST JUMPDEST PUSH1 0x0 PUSH2 0x1DD DUP5 DUP3 DUP6 ADD PUSH2 0x1A4 JUMP JUMPDEST SWAP2 POP POP SWAP3 SWAP2 POP POP JUMP JUMPDEST PUSH2 0x1EF DUP2 PUSH2 0x183 JUMP JUMPDEST DUP3 MSTORE POP POP JUMP JUMPDEST PUSH1 0x0 PUSH1 0x20 DUP3 ADD SWAP1 POP PUSH2 0x20A PUSH1 0x0 DUP4 ADD DUP5 PUSH2 0x1E6 JUMP JUMPDEST SWAP3 SWAP2 POP POP JUMP JUMPDEST PUSH32 0x4E487B7100000000000000000000000000000000000000000000000000000000 PUSH1 0x0 MSTORE PUSH1 0x12 PUSH1 0x4 MSTORE PUSH1 0x24 PUSH1 0x0 REVERT JUMPDEST PUSH1 0x0 PUSH2 0x24A DUP3 PUSH2 0x183 JUMP JUMPDEST SWAP2 POP PUSH2 0x255 DUP4 PUSH2 0x183 JUMP JUMPDEST SWAP3 POP DUP3 PUSH2 0x265 JUMPI PUSH2 0x264 PUSH2 0x210 JUMP JUMPDEST JUMPDEST DUP3 DUP3 DIV SWAP1 POP SWAP3 SWAP2 POP POP JUMP INVALID LOG2 PUSH5 0x6970667358 0x22 SLT KECCAK256 SELFBALANCE 0xAC PUSH16 0x5DF79215817083431C2B8569A9BEEFB3 0xED 0xA6 0xAC BALANCE PUSH10 0x879D7A45C1FF4A326473 PUSH16 0x6C634300081100330000000000000000 "
		},
		"gasEstimates": {
			"creation": {
				"codeDepositCost": "135600",
				"executionCost": "183",
				"totalCost": "135783"
			},
			"external": {
				"convert_to_ether(uint256)": "infinite",
				"convert_to_gwei(uint256)": "infinite",
				"convert_to_wei(uint256)": "infinite",
				"show_converted_ether()": "2437",
				"show_converted_gwei()": "2459",
				"show_converted_wei()": "2525"
			}
		},
		"methodIdentifiers": {
			"convert_to_ether(uint256)": "a38cdcc7",
			"convert_to_gwei(uint256)": "b49a212c",
			"convert_to_wei(uint256)": "10b9c3f9",
			"show_converted_ether()": "5e86e7cf",
			"show_converted_gwei()": "74c3fb6c",
			"show_converted_wei()": "bdb5fe46"
		}
	},
	"abi": [
		{
			"inputs": [
				{
					"internalType": "uint256",
					"name": "some_wei",
					"type": "uint256"
				}
			],
			"name": "convert_to_ether",
			"outputs": [],
			"stateMutability": "nonpayable",
			"type": "function"
		},
		{
			"inputs": [
				{
					"internalType": "uint256",
					"name": "some_wei",
					"type": "uint256"
				}
			],
			"name": "convert_to_gwei",
			"outputs": [],
			"stateMutability": "nonpayable",
			"type": "function"
		},
		{
			"inputs": [
				{
					"internalType": "uint256",
					"name": "some_wei",
					"type": "uint256"
				}
			],
			"name": "convert_to_wei",
			"outputs": [],
			"stateMutability": "nonpayable",
			"type": "function"
		},
		{
			"inputs": [],
			"name": "show_converted_ether",
			"outputs": [
				{
					"internalType": "uint256",
					"name": "",
					"type": "uint256"
				}
			],
			"stateMutability": "view",
			"type": "function"
		},
		{
			"inputs": [],
			"name": "show_converted_gwei",
			"outputs": [
				{
					"internalType": "uint256",
					"name": "",
					"type": "uint256"
				}
			],
			"stateMutability": "view",
			"type": "function"
		},
		{
			"inputs": [],
			"name": "show_converted_wei",
			"outputs": [
				{
					"internalType": "uint256",
					"name": "",
					"type": "uint256"
				}
			],
			"stateMutability": "view",
			"type": "function"
		}
	]
}